{
  "_format": "hh-sol-artifact-1",
  "contractName": "SaveEther",
  "sourceName": "contracts/SaveEther.sol",
  "abi": [
    {
      "inputs": [],
      "stateMutability": "nonpayable",
      "type": "constructor"
    },
    {
      "anonymous": false,
      "inputs": [
        {
          "indexed": true,
          "internalType": "address",
          "name": "user",
          "type": "address"
        },
        {
          "indexed": false,
          "internalType": "uint256",
          "name": "amount",
          "type": "uint256"
        }
      ],
      "name": "Transfer",
      "type": "event"
    },
    {
      "inputs": [
        {
          "internalType": "uint256",
          "name": "_duration",
          "type": "uint256"
        }
      ],
      "name": "depositEther",
      "outputs": [],
      "stateMutability": "payable",
      "type": "function"
    },
    {
      "inputs": [],
      "name": "getContractBalance",
      "outputs": [
        {
          "internalType": "uint256",
          "name": "",
          "type": "uint256"
        }
      ],
      "stateMutability": "view",
      "type": "function"
    },
    {
      "inputs": [],
      "name": "getDepositInfo",
      "outputs": [
        {
          "internalType": "uint256",
          "name": "",
          "type": "uint256"
        },
        {
          "internalType": "uint256",
          "name": "",
          "type": "uint256"
        }
      ],
      "stateMutability": "view",
      "type": "function"
    },
    {
      "inputs": [],
      "name": "owner",
      "outputs": [
        {
          "internalType": "address",
          "name": "",
          "type": "address"
        }
      ],
      "stateMutability": "view",
      "type": "function"
    },
    {
      "inputs": [],
      "name": "withdrawEther",
      "outputs": [],
      "stateMutability": "nonpayable",
      "type": "function"
    }
  ],
  "bytecode": "0x6080604052348015600f57600080fd5b50336000806101000a81548173ffffffffffffffffffffffffffffffffffffffff021916908373ffffffffffffffffffffffffffffffffffffffff1602179055506109bd8061005f6000396000f3fe60806040526004361061004a5760003560e01c806326839f171461004f5780636f9fb98a1461006b5780637362377b146100965780638969e0f9146100ad5780638da5cb5b146100d9575b600080fd5b610069600480360381019061006491906105d5565b610104565b005b34801561007757600080fd5b50610080610239565b60405161008d9190610611565b60405180910390f35b3480156100a257600080fd5b506100ab610249565b005b3480156100b957600080fd5b506100c2610473565b6040516100d092919061062c565b60405180910390f35b3480156100e557600080fd5b506100ee6104cc565b6040516100fb9190610696565b60405180910390f35b600073ffffffffffffffffffffffffffffffffffffffff163373ffffffffffffffffffffffffffffffffffffffff1603610173576040517f08c379a000000000000000000000000000000000000000000000000000000000815260040161016a9061070e565b60405180910390fd5b60013410156101b7576040517f08c379a00000000000000000000000000000000000000000000000000000000081526004016101ae9061077a565b60405180910390fd5b6101bf610580565b3481600001818152505081426101d591906107c9565b81602001818152505080600160003373ffffffffffffffffffffffffffffffffffffffff1673ffffffffffffffffffffffffffffffffffffffff16815260200190815260200160002060008201518160000155602082015181600101559050505050565b60006102436104f0565b47905090565b600073ffffffffffffffffffffffffffffffffffffffff163373ffffffffffffffffffffffffffffffffffffffff16036102b8576040517f08c379a00000000000000000000000000000000000000000000000000000000081526004016102af9061070e565b60405180910390fd5b6000600160003373ffffffffffffffffffffffffffffffffffffffff1673ffffffffffffffffffffffffffffffffffffffff1681526020019081526020016000209050670de0b6b3a76400008160000154101561034a576040517f08c379a000000000000000000000000000000000000000000000000000000000815260040161034190610849565b60405180910390fd5b80600101544211610390576040517f08c379a0000000000000000000000000000000000000000000000000000000008152600401610387906108b5565b60405180910390fd5b600081600001549050600082600001819055506000826001018190555060003373ffffffffffffffffffffffffffffffffffffffff16826040516103d390610906565b60006040518083038185875af1925050503d8060008114610410576040519150601f19603f3d011682016040523d82523d6000602084013e610415565b606091505b50509050801561046e573373ffffffffffffffffffffffffffffffffffffffff167f69ca02dd4edd7bf0a4abb9ed3b7af3f14778db5d61921c7dc7cd545266326de2836040516104659190610611565b60405180910390a25b505050565b6000806000600160003373ffffffffffffffffffffffffffffffffffffffff1673ffffffffffffffffffffffffffffffffffffffff16815260200190815260200160002090508060000154816001015492509250509091565b60008054906101000a900473ffffffffffffffffffffffffffffffffffffffff1681565b60008054906101000a900473ffffffffffffffffffffffffffffffffffffffff1673ffffffffffffffffffffffffffffffffffffffff163373ffffffffffffffffffffffffffffffffffffffff161461057e576040517f08c379a000000000000000000000000000000000000000000000000000000000815260040161057590610967565b60405180910390fd5b565b604051806040016040528060008152602001600081525090565b600080fd5b6000819050919050565b6105b28161059f565b81146105bd57600080fd5b50565b6000813590506105cf816105a9565b92915050565b6000602082840312156105eb576105ea61059a565b5b60006105f9848285016105c0565b91505092915050565b61060b8161059f565b82525050565b60006020820190506106266000830184610602565b92915050565b60006040820190506106416000830185610602565b61064e6020830184610602565b9392505050565b600073ffffffffffffffffffffffffffffffffffffffff82169050919050565b600061068082610655565b9050919050565b61069081610675565b82525050565b60006020820190506106ab6000830184610687565b92915050565b600082825260208201905092915050565b7f4e6f74205065726d697474656400000000000000000000000000000000000000600082015250565b60006106f8600d836106b1565b9150610703826106c2565b602082019050919050565b60006020820190508181036000830152610727816106eb565b9050919050565b7f416d6f756e7420697320746f6f20736d616c6c00000000000000000000000000600082015250565b60006107646013836106b1565b915061076f8261072e565b602082019050919050565b6000602082019050818103600083015261079381610757565b9050919050565b7f4e487b7100000000000000000000000000000000000000000000000000000000600052601160045260246000fd5b60006107d48261059f565b91506107df8361059f565b92508282019050808211156107f7576107f661079a565b5b92915050565b7f42616c616e6365206e6f7420656e6f7567680000000000000000000000000000600082015250565b60006108336012836106b1565b915061083e826107fd565b602082019050919050565b6000602082019050818103600083015261086281610826565b9050919050565b7f4e6f742079657420647565000000000000000000000000000000000000000000600082015250565b600061089f600b836106b1565b91506108aa82610869565b602082019050919050565b600060208201905081810360008301526108ce81610892565b9050919050565b600081905092915050565b50565b60006108f06000836108d5565b91506108fb826108e0565b600082019050919050565b6000610911826108e3565b9150819050919050565b7f55736572206e6f7420616c6c6f77656400000000000000000000000000000000600082015250565b60006109516010836106b1565b915061095c8261091b565b602082019050919050565b6000602082019050818103600083015261098081610944565b905091905056fea2646970667358221220ce3840cc5cac38453d9953fc61f2883465d2e3f741b144da48d6c6118b3f0ac764736f6c634300081b0033",
  "linkReferences": {},
  "deployedLinkReferences": {}
}